:020000020000FC
:020000004AC0F4
:02002000A8C274
:02007800BCC406
:1000900014C402053704F8940FE20EBF0FEF0DBF32
:1000A00022D0F0E0E2E9B0E2A1E0D0E2C5E822E04F
:1000B000059115910A931A932197CD93DD9303E847
:1000C000C00F00E0D01F2A9599F700E000930020B0
:1000D00000910120109102201EBF0DBF07E0009388
:1000E000A200789408950AEA0093000600E20093C3
:1000F000040600E000931006009311060093120618
:1001000000931306009314060093150600E3009372
:10011000170600E10093160603EB0093400600E08B
:100120000093440600E000935006009351060093AC
:10013000520600935306009354060093550600930D
:100140005606009357060CE70093600600E0009304
:10015000640600E000937006009371060093720637
:100160000093730600937406009375060093760659
:100170000093770603E00093E00700E00093E407B4
:1001800000E00093F0070093F1070895B0E2A1E0CA
:1001900000910020000FA00F0027B01F0DB70D9396
:1001A0000EB70D93009100200395023018F0002740
:1001B000B0E2A1E0009300200D911D91F8941EBFC4
:1001C0000DBF78940895087707600093210201E03D
:1001D0000093230202E8009320020E94C6000091CF
:1001E000060200FFFACF109124020091250207FDBC
:1001F0000027089500E00093000202E70093010247
:100200001093020202E00093040200E0009308024F
:1002100002E00093200220932C0203E000930002EE
:10022000089500E0009300020895B0E1A0E00ED030
:10023000102F0CD0A12FB02F0895CA2FDB2FB0E1C3
:10024000A0E00C2F05D00D2F03D008950D91089537
:1002500015E31093CA0111270C93A093C001B0932A
:10026000C1011093C2010093C4011093C501109302
:10027000C601F89408ED0093340001E00093CB012F
:10028000789400000091CF0107FDFBCF11960895EF
:100290000093E3080091E20807FFFCCF0091E30818
:1002A000089500E00093E0080093E40800E800935C
:1002B000E20801E50093E008089500E00093E008FB
:1002C00000E00093440600E100935606089535D1FE
:1002D000DED094D049D1089502E0009305062DD1D7
:1002E000D6D083D00CE3009305210E94C600009174
:1002F0000521003031F004E6A6D355D0B1F73AD04D
:1003000005D032D102E0009306060895009108213D
:10031000033079F50091092110914921011749F520
:10032000A0910A21B0910B2188DF02E0009306061C
:1003300008EC89D302E00093050608EC84D302E0C0
:100340000093060608EC7FD302E00093050608EC54
:100350007AD302E00093060608EC75D302E000931E
:10036000050608EC70D302E0009306065EDF1AD1A2
:100370001DD3089503E110E0D5D010910721011796
:1003800089F000E010E0CED0A9E0B1E210910721A1
:10039000A10F10E0B11F0C9310910721139510933A
:1003A0000721E8CF089502E110E0BCD000930621B8
:1003B000102F02E1ACD0009106210076003499F4B0
:1003C00000E00093072103E110E0ACD00093082186
:1003D00000E110E0A7D0102F0DE099D001E011E866
:1003E00096D0189401C09894089500E410E08FD03E
:1003F00001E015E88CD004E626D3089501E010E072
:1004000091D007700330D1F302E118E080D001E011
:1004100011E87DD00DE010E07AD002E210E077D054
:1004200000E01091492173D000E010914A216FD073
:1004300000E010914B216BD000E010914C2167D06F
:1004400000E010914D2163D000E010914E215FD06B
:1004500000E010914F215BD000E01091502157D067
:1004600000E01091512153D000E010915A214FD05B
:1004700002E21AE04CD001E013E849D002E110E0BA
:1004800051D003FFFBCF02E118E041D0089501E015
:1004900010E83DD006E014EE3AD007E010EC37D07B
:1004A00008E010E034D00EE010E031D00FE010E0B2
:1004B0002ED00CE013E22BD006E214E028D00DE49D
:1004C00014E825D00BE01BE222D009E01CE81FD085
:1004D00001E011E81CD009E312E119D001E313ECAB
:1004E00016D007E31AE013D00EE120915B2114E04F
:1004F000122B0DD006E21CE00AD00DE112E707D066
:1005000000E210E004D001E218E001D0089521E0FB
:10051000209346060068BCDE012FBADE21E020935E
:100520004506089521E0209346060F77B1DE012F9E
:10053000AFDE21E020934506089503EB00934006CB
:1005400003E10093440600E000935606AADE0AE0A9
:100550007AD202E0009346060AE075D202E00093E8
:1005600045060AE070D20895A8DE00E10093460631
:1005700008950F9300E00093020401E00F91189595
:100580000FB70F93F89433D000E000930804009362
:10059000090402E0009303040CE0009302040F91AD
:1005A0000FBF08950FB70F93F89400E00093020473
:1005B00001E0009343001BD000E00093000417D03B
:1005C00000E0009308040093090411D0A0930C04E8
:1005D000B0930D040CD007E00093000402E00093F8
:1005E00003040CE0009302040F910FBF08950F93D2
:1005F0000091010400FDFCCF0F910895FFD003D0BE
:1006000092D0CDD0089565D00CED1DD200E10093BD
:10061000660672D000E10093650600E2009366066C
:100620006BD000E20093650600E40093660664D098
:1006300000E40093650602E00093E6075DD002E067
:100640000093E50704E6FFD100E10093660654D06D
:1006500000E100936506D0934A21C0934B21B093EB
:100660005221A093532100E20093660645D000E298
:1006700000936506D0934C21C0934D21B093542133
:10068000A093552100E40093660636D000E4009361
:100690006506D0934E21C0934F21B0935621A0936D
:1006A000572102E00093E60727D002E00093E50718
:1006B000D0935021C0935121B0935821A093592138
:1006C00001D0089503E00093E60704E7009366066F
:1006D000089504E70093610604E70093650603E0CC
:1006E0000093E10702E00093E50700E8009362064B
:1006F00000E000937706089508D0D02F06D0C02FD1
:1007000004D0B02F02D0A02F089501E011E0109383
:10071000E507000F2091680627FD016011E01093A6
:10072000E607A0F70895D3E0D0E7B0915221A09159
:1007300053212CD031F4A0914B2102E0A02BA093A7
:100740004B21B0915421A091552120D031F4A0919A
:100750004D2102E0A02BA0934D21B0915621A091F4
:10076000572114D031F4A0914F2102E0A02BA09387
:100770004F21B0915821A091592108D031F4A09176
:10078000512102E0A02BA0935121089500EFA02356
:10079000AC17BD0710F4989401C01894089508E0B0
:1007A0000093050610E028E025DD03E04CD100E1D0
:1007B0000ADD110F001F00935A2108E0009306067E
:1007C00030DD00915A210895013CB8F402E0009315
:1007D000050602E338D102E00093060604E633D1B1
:1007E00002E00093050602E32ED102E00093060624
:1007F00000E2009306060000FECF089500E8009393
:10080000050610E129E0F6DC03E01DD100E4DBDCA5
:1008100000935C2108E4D7DC00935D2100915C210A
:100820001CD00F9300915D2118D0102F0F911F70D5
:100830001295012B102F0F7100934921107E1695F0
:1008400000E5100F10935B21089563605C58534ED0
:1008500049423B342C241B10050010E0EAE4F8E088
:10086000139525910217E0F31A95012F089558D09A
:100870000E94C60020915E2120FFFACF2E7F0091BA
:100880006421015010F00093642121FF13C02D7FDB
:1008900022FF10C02B7F00916321015010F00093C4
:1008A000632123FF07C0277F00910521015010F02D
:1008B0000093052120935E21DBCF0F9300913F0031
:1008C0000F931F932F9301E000934C0910915E2129
:1008D000116000915F210A9500935F21C1F42AE025
:1008E00020935F211260009160210A95009360219E
:1008F00071F42AE0209360211460009161210A952F
:100900000093612121F42AE0209361211860109363
:100910005E212F911F910F9100933F000F91189529
:1009200000E000934009009346090093470900E066
:10093000009341090093420900934309009344093D
:100940000093480900934A0900934B0900936009FA
:10095000009361090FEC17E0009366091093670993
:10096000002700935E210AE000935F21009360213D
:100970000093612107EF00934C0901E000934609C1
:1009800001E000934009089502E3009363210E946F
:10099000C600009108060071003031F0009163211B
:1009A0000030A9F7189401C0989408950FB70F93D9
:1009B000F89400E10093020600E10093140600E1C0
:1009C00000930C0600930A0600E0009309060F91BD
:1009D0000FBF08950FB70F93F89400E000936221C2
:1009E00000E100930C0601E0009309060F910FBF90
:1009F00008950F9300E00093090601E0009362213F
:100A00000F911895CCDEE0DE10DCCCDDCFDF02E00C
:100A100000930506F3DD5BDC02E0009306060AD0D6
:100A2000BEDED2DE00916221013089F7ADDF79F7B9
:100A300053DCEDCFF894A4DDCDDF07E00093480050
:100A4000789488950895009364210E94C6000091CF
:100A500064210030D1F7089500E80093050610E105
:100A600029E0C8DB03E0EFDF00E4ADDB00935C21AD
:100A700008E4A9DB00935D2100915C21EEDE0F9379
:100A800000915D21EADE102F0F911F701295012B4E
:100A9000102F0F7100934921107E169500E5100F5D
:060AA00010935B21D9CF89
:00000001FF
