:020000020000FC
:020000004AC0F4
:02002000AEC26E
:02007800D3C4EF
:100090002BC419054E04F8940FE20EBF0FEF0DBFED
:1000A00022D0F0E0E2E9B0E2A1E0D0E2C5E822E04F
:1000B000059115910A931A932197CD93DD9303E847
:1000C000C00F00E0D01F2A9599F700E000930020B0
:1000D00000910120109102201EBF0DBF07E0009388
:1000E000A200789408950AEA0093000600E20093C3
:1000F000040600E000931006009311060093120618
:1001000000931306009314060093150600E3009372
:10011000170600E10093160603EB0093400600E08B
:100120000093440600E000935006009351060093AC
:10013000520600935306009354060093550600930D
:100140005606009357060CE70093600600E0009304
:10015000640600E000937006009371060093720637
:100160000093730600937406009375060093760659
:100170000093770603E00093E00700E00093E407B4
:1001800000E00093F0070093F1070895B0E2A1E0CA
:1001900000910020000FA00F0027B01F0DB70D9396
:1001A0000EB70D93009100200395023018F0002740
:1001B000B0E2A1E0009300200D911D91F8941EBFC4
:1001C0000DBF78940895087707600093210201E03D
:1001D0000093230202E8009320020E94C6000091CF
:1001E000060200FFFACF109124020091250207FDBC
:1001F0000027089500E00093000202E70093010247
:100200001093020202E00093040200E0009308024F
:1002100002E00093200220932C0203E000930002EE
:10022000089500E0009300020895B0E1A0E00ED030
:10023000102F0CD0A12FB02F0895CA2FDB2FB0E1C3
:10024000A0E00C2F05D00D2F03D008950D91089537
:1002500015E31093CA0111270C93A093C001B0932A
:10026000C1011093C2010093C4011093C501109302
:10027000C601F89408ED0093340001E00093CB012F
:10028000789400000091CF0107FDFBCF11960895EF
:100290000093E3080091E20807FFFCCF0091E30818
:1002A000089500E00093E0080093E40800E800935C
:1002B000E20801E50093E008089500E00093E008FB
:1002C00000E00093440600E10093560608953BD1F8
:1002D000DED094D04FD1089502E00093050633D1CB
:1002E000D6D083D00CE3009305210E94C600009174
:1002F0000521003031F004E6BDD355D0B1F73AD036
:1003000005D038D102E00093060608950091082137
:10031000033079F50091092110914921011749F520
:10032000A0910A21B0910B2188DF02E0009306061C
:1003300008ECA0D302E00093050608EC9BD302E092
:100340000093060608EC96D302E00093050608EC3D
:1003500091D302E00093060608EC8CD302E00093F0
:10036000050608EC87D302E0009306065EDF20D185
:1003700034D3089503E110E0DBD010910721011779
:1003800089F000E010E0D4D0A9E0B1E2109107219B
:10039000A10F10E0B11F0C9310910721139510933A
:1003A0000721E8CF089502E110E0C2D000930621B2
:1003B000102F02E1B2D0009106210076003499F4AA
:1003C00000E00093072103E110E0B2D00093082180
:1003D00000E110E0ADD0102F0DE09FD001E011E85A
:1003E0009CD0189401C09894089500E410E095D032
:1003F00001E015E892D004E63DD3089501E010E055
:1004000097D007700330D1F302E118E086D001E005
:1004100011E883D00DE010E080D002E210E07DD042
:1004200000E01091492179D000E010914A2175D067
:1004300000E010914B2171D000E010914C216DD063
:1004400000E010914D2169D000E010914E2165D05F
:1004500000E010914F2161D000E0109150215DD05B
:1004600000E01091512159D000E010915A2155D04F
:1004700002E21AE052D001E013E84FD002E110E0AE
:1004800057D003FFFBCF02E118E047D0089501E009
:1004900010E843D006E015EE40D007E019E53DD066
:1004A00008E019E93AD00EE010E037D00FE010E094
:1004B00034D00CE013E231D006E214E02ED00DE48B
:1004C00017E82BD00BE01BE328D009E01FE825D06C
:1004D00001E011E822D009E314E31FD001E313EC9B
:1004E0001CD007E31AE019D00EE120915B2114E043
:1004F000122B13D006E210915B21103B10F01CE090
:1005000001C014E00AD00DE112E707D000E210E0CC
:1005100004D001E218E001D0089521E020934606BE
:100520000068B6DE012FB4DE21E020934506089571
:1005300021E0209346060F77ABDE012FA9DE21E0F4
:1005400020934506089503EB0093400603E10093D2
:10055000440600E000935606A4DE0AE08BD202E0D7
:10056000009346060AE086D202E0009345060AE0C0
:1005700081D20895A2DE00E10093460608950F930C
:1005800000E00093020401E00F9118950FB70F935C
:10059000F89433D000E0009308040093090402E0CB
:1005A000009303040CE0009302040F910FBF089521
:1005B0000FB70F93F89400E00093020401E000935A
:1005C00043001BD000E00093000417D000E000932C
:1005D00008040093090411D0A0930C04B0930D04F7
:1005E0000CD007E00093000402E0009303040CE049
:1005F000009302040F910FBF08950F93009101041F
:1006000000FDFCCF0F91089510D103D092D0CDD032
:10061000089565D00CED2ED200E10093660672D0ED
:1006200000E10093650600E2009366066BD000E2ED
:100630000093650600E40093660664D000E400932E
:10064000650602E00093E6075DD002E00093E5074F
:1006500004E610D200E10093660654D000E1009356
:100660006506D0934A21C0934B21B0935221A093A9
:10067000532100E20093660645D000E20093650630
:10068000D0934C21C0934D21B0935421A093552178
:1006900000E40093660636D000E400936506D0932C
:1006A0004E21C0934F21B0935621A093572102E0D1
:1006B0000093E60727D002E00093E507D09350218E
:1006C000C0935121B0935821A093592101D008958E
:1006D00003E00093E60704E700936606089504E745
:1006E0000093610604E70093650603E00093E107C9
:1006F00002E00093E50700E80093620600E0009343
:100700007706089508D0D02F06D0C02F04D0B02F80
:1007100002D0A02F089501E011E01093E507000F2B
:100720002091680627FD016011E01093E607A0F70D
:100730000895D3E0D0E7B0915221A09153212CD05D
:1007400031F4A0914B2102E0A02BA0934B21B0915A
:100750005421A091552120D031F4A0914D2102E0E7
:10076000A02BA0934D21B0915621A091572114D0D8
:1007700031F4A0914F2102E0A02BA0934F21B09122
:100780005821A091592108D031F4A091512102E0C3
:10079000A02BA0935121089500EFA023AC17BD0713
:1007A00010F4989401C01894089508E00093050689
:1007B00010E028E01FDD03E05DD100E104DD110F52
:1007C000001F102F10935C21A3E0B0E10C91101BCF
:1007D00017FD03C0110F110F01C0112710935A21EB
:1007E00008E0009306061DDD00915C210895102F9E
:1007F000B0E1A2E00C911017B8F402E000930506F6
:1008000002E338D102E00093060604E633D102E0A9
:100810000093050602E32ED102E00093060600E2F3
:10082000009306060000FECF089500E80093050639
:1008300010E129E0DFDC03E01DD100E4C4DC00931B
:100840005D2108E4C0DC00935E2100915D211CD095
:100850000F9300915E2118D0102F0F911F701295E9
:10086000012B102F0F7100934921107E169500E582
:10087000100F10935B21089563605C58534E4942FA
:100880003B342C241B10050010E0E8E7F8E013953A
:1008900025910217E0F31A95012F089558D00E9470
:1008A000C60020915F2120FFFACF2E7F00916521A5
:1008B000015010F00093652121FF13C02D7F22FF0E
:1008C00010C02B7F00916421015010F0009364212F
:1008D00023FF07C0277F00910521015010F00093EE
:1008E000052120935F21DBCF0F9300913F000F93F1
:1008F0001F932F9301E000934C0910915F21116029
:10090000009160210A9500936021C1F42AE02093B0
:1009100060211260009161210A950093612171F4B8
:100920002AE0209361211460009162210A950093CE
:10093000622121F42AE020936221186010935F2144
:100940002F911F910F9100933F000F91189500E098
:1009500000934009009346090093470900E0009383
:10096000410900934209009343090093440900930D
:10097000480900934A0900934B09009360090093CA
:1009800061090FEC17E000936609109367090027CF
:1009900000935F210AE0009360210093612100939E
:1009A000622107EF00934C0901E00093460901E042
:1009B00000934009089502E3009364210E94C60059
:1009C000009108060071003031F000916421003080
:1009D000A9F7189401C0989408950FB70F93F8944D
:1009E00000E10093020600E10093140600E1009389
:1009F0000C0600930A0600E0009309060F910FBF52
:100A000008950FB70F93F89400E00093632100E17D
:100A100000930C0601E0009309060F910FBF0895A3
:100A20000F9300E00093090601E0009363210F910A
:100A30001895BBDEDCDEF9DBBBDDCFDF02E0009327
:100A40000506E2DD44DC02E0009306060AD0ADDED6
:100A5000CEDE00916321013089F7ADDF79F73CDC10
:100A6000EDCFF89493DDCDDF07E000934800789454
:100A700088950895009365210E94C6000091652124
:100A80000030D1F7089508E00093050610E028E053
:100A9000B1DB03E0EFDF00E196DB110F001FB0E1F7
:100AA000A3E0D6DB08E000930606BBDBFFCF08E03F
:100AB0000093050610E028E09DDB03E0DBDF00E1AA
:100AC00082DB110F001FB0E1A2E0C2DB08E000935F
:060AD0000606A7DBFFCFC4
:00000001FF
